:10000000A6C00000CCC00000CAC00000C8C00000EC
:10001000C6C00000C4C00000C2C00000C0C00000D4
:10002000BEC00000BCC00000BAC000000C949D1C03
:10003000B6C00000B4C00000B2C00000B0C00000F4
:100040000C943009ACC000000C9459080C948B0837
:10005000A6C00000A4C00000A2C00000A0C0000014
:100060009EC000009CC00000036EDB363D9A99994B
:10007000993DABAAAA2A3E000000803F084AD73B20
:100080003BCE016E84BCBFFDC12F3D6C74319ABD67
:1000900056833DDA3D00C77F11BED9E4BB4C3E918B
:1000A0006BAAAABE000000803F072C7AA5BA6CC5D7
:1000B00090DA3B9365FC8BBC53F810FD3C56928361
:1000C0004DBD879D3AB63DCBC9BF5BBE73DA0FC944
:1000D0003F05A84CCDB2D44EB93836A9020C50B960
:1000E000918688083CA6AAAA2ABE000000803F008C
:1000F00000000008000201000003040700000000E7
:1001000000000000010204081020408001020408E1
:100110001020010204081020040404040404040450
:1001200002020202020203030303030300000000B1
:1001300023002600290000000000250028002B00D5
:1001400000000000240027002A00B908991C11248F
:100150001FBECFEFD8E0DEBFCDBF11E0A0E0B1E021
:10016000E4EEF5E402C005900D92A631B107D9F78F
:1001700022E0A6E1B1E001C01D92A335B207E1F78C
:1001800011E0CEE4D1E004C02297FE010E94671F77
:10019000CA34D107C9F70E9425090C94F02230CF48
:1001A000DC01ED91FC910190F081E02D0994EF923A
:1001B000FF920F931F93CF93DF931F92CDB7DEB7BC
:1001C0007C01FC0100811181C80169830E94DA224F
:1001D0006981681719F0C8010E94E222C7010F90D7
:1001E000DF91CF911F910F91FF90EF90089526E03E
:1001F00040E051EE60E070E089E591E0F8D68FEFE5
:1002000091E00C94F80ECF93DF93EC01BC016F7773
:10021000772789E591E0C4DFBE01660F672F661F6F
:10022000770B6F77772789E591E0DF91CF91B8CF92
:100230004F925F926F927F928F929F92AF92BF92F6
:10024000CF92DF92EF92FF92CF934B015C010E941D
:100250009B206B017C01882777FD8095982F0E9459
:10026000CE209B01AC01C501B4010E94881F20E093
:1002700030E048EC52E40E9413222B013C0120E0C4
:1002800030E0A9010E94082220E030E040E05FE376
:1002900087FD05C0C301B2010E94891F04C0C301CC
:1002A000B2010E94881F0E949B20762E672EC1E01B
:1002B00020E030E0A901C501B4010E94082218160F
:1002C0000CF0C0E061E06C2770E089E591E068DF48
:1002D0005601D7FE04C0AA24BB24AC18BD08B50142
:1002E0006F77772789E591E05BDFB501660F672FB0
:1002F000661F770B6F77772789E591E051DF672DD0
:10030000762D77FF03C07195619571096F77772717
:1003100089E591E0CF91FF90EF90DF90CF90BF9073
:10032000AF909F908F907F906F905F904F9038CF5D
:100330008F929F92AF92BF92CF92DF92EF92FF92F5
:100340004B015C010E949B206B017C01882777FD9B
:100350008095982F0E94CE209B01AC01C501B4016D
:100360000E94881F20E030E048EC52E40E941322F3
:100370004B015C0120E030E0A9010E94082220E04E
:1003800030E040E05FE387FD05C0C501B4010E9495
:10039000891F04C0C501B4010E94881F0E949B20D0
:1003A0004B015601D7FE04C0AA24BB24AC18BD08DB
:1003B000B5016F77772789E591E0F2DEB501660F29
:1003C000672F661F770B6F77772789E591E0E8DE67
:1003D000B40197FE03C07195619571096F77772716
:1003E00089E591E0FF90EF90DF90CF90BF90AF90C4
:1003F0009F908F90D5CECF93DF93EC0161E070E0BA
:100400001816190614F460E070E089E591E0C8DE82
:10041000D7FF03C0D195C195D109BE016F7777276A
:1004200089E591E0BDDEBE01660F672F661F770B81
:100430006F77772789E591E0DF91CF91B1CE2F9249
:100440003F924F925F926F927F928F929F92AF9264
:10045000BF92CF92DF92EF92FF920F931F93CF93B1
:10046000DF93CDB7DEB763970FB6F894DEBF0FBE4C
:10047000CDBF1A018A3A09F080C4DA018C9180312B
:1004800001F511961C91119741E012968C91811102
:1004900001C040E060EF70E089E591E04A8B80DECA
:1004A0006AEA70E089E591E07BDE612F89E591E001
:1004B0003AD54A89612F8FEF91E00E941F0E38DFF5
:1004C000B6C18131B9F501E0FA018581811101C020
:1004D00000E0D10112968C91129713966C91B0E8BE
:1004E0006B9FB0011124680F711D882777FD8095DF
:1004F000982F0E94CE206B017C01F101648170E095
:1005000080E090E00E94CC2020E030E048EC52E413
:100510000E9433209B01AC01C701B6010E94891FD4
:100520009B01AC01D10111966C918FEF91E00E947B
:10053000E20B21C4823191F560EF70E089E591E032
:100540002FDE6AEA70E089E591E02ADE62E170E080
:1005500089E591E025DE8FEF91E00E94F411809013
:10056000240290902502A0902602B0902702C0900D
:100570002802D0902902E0902A02F0902B0260918C
:10058000200270912102809122029091230250DE7C
:10059000C501B4014DDEC701B60105C2833109F0C2
:1005A00026C1FA0182816381F0E86F9FB0011124B6
:1005B000680F711D882777FD8095982F0E94CE20A7
:1005C0006B017C01D10114966C9170E080E090E0A9
:1005D0000E94CC2020E030E048EC52E40E9433201E
:1005E0009B01AC01C701B6010E94891F6F83788708
:1005F00089879A87F1018181813049F48F819885BB
:10060000A985BA85B0588F839887A987BA87D10101
:1006100016968C91169717966C91B0E86B9FB00167
:100620001124680F711D882777FD8095982F0E94EF
:10063000CE206B017C01F101608570E080E090E0EC
:100640000E94CC2020E030E048EC52E40E943320AD
:100650009B01AC01C701B6010E94891F2B013C011F
:10066000D10115968C91813021F477FA709477F846
:100670007094F10182856385F0E86F9FB0011124C9
:10068000680F711D882777FD8095982F0E94CE20D6
:100690006B017C01D1011C966C9170E080E090E0D0
:1006A0000E94CC2020E030E048EC52E40E9433204D
:1006B0009B01AC01C701B6010E94891F6B017C013F
:1006C000F1018185813021F4F7FAF094F7F8F09484
:1006D000D1011D968C911D971E966C91B0E86B9F71
:1006E000B0011124680F711D882777FD8095982F20
:1006F0000E94CE204B015C01F101678570E080E033
:1007000090E00E94CC2020E030E048EC52E40E94CF
:1007100033209B01AC01C501B4010E94891F4B012C
:100720005C01D1015096BC91BF87F101818962893A
:10073000F0E86F9FB0011124680F711D882777FDC5
:100740008095982F0E94CE206B877C878D879E870F
:10075000D10153966C9170E080E090E00E94CC2033
:1007600020E030E048EC52E40E9433209B01AC01D1
:100770006B857C858D859E850E94891F362F472F2E
:10078000582F9B87F101248905891689123010F4AE
:10079000117001C010E065E070E080E090E02B8B0C
:1007A000388B4A8B598BC9D51F930F932B892F9365
:1007B000FB85FF9359895F934A894F9338893F930B
:1007C0008F858F93930182014F81588569857A8542
:1007D0008FEF91E00E9455186AE070E080E090E0B1
:1007E000ACD50FB6F894DEBF0FBECDBFC6C2843104
:1007F00021F5FA011181028160EF70E089E591E055
:10080000CFDC6AEA70E089E591E0CADC612F89E516
:1008100091E089D3013011F462E001C060E0812FE2
:10082000A1D6812F0DD7BC0189E591E0B9DC67EF36
:1008300070E089E591E0B4DC9EC2853181F4DA0193
:1008400011961C9161E0812F8DD6F101828181305A
:1008500011F461E001C060E0812FBDD68CC2863109
:10086000A1F4DA0111961C9160EF70E089E591E046
:1008700097DC6AEA70E089E591E092DC612F89E516
:1008800091E051D3812FCBD561C08731A1F5FA0119
:10089000B18061E08B2D66D6D10112968C911297B2
:1008A00013960C91B0E80B9F80011124080F111DC5
:1008B000B801882777FD8095982F0E94CE206B0184
:1008C0007C0120E030E0A9010E942C2087FD0CC0B3
:1008D00020E030E04FE753E4C701B6010E94082250
:1008E00018162CF46FEF01C060E070E001C0B80191
:1008F0008B2DB2D540C28A3109F057C0FA0121814F
:1009000082810381F0E80F9F80011124080F111DDF
:1009100060EF70E089E591E02B8B42DC6AEA70E0E1
:1009200089E591E03DDC6AE170E089E591E038DC41
:10093000C80169DC2B89223059F02430C1F0213004
:1009400009F075CFC8010E94DA2290E05CDC6FCF1D
:100950001A821982C8010E94DA228983C80101968D
:100960000E94DA228A8389819A8145DD60CF1982CB
:100970001A821B821C826E0185E0C80ED11CDE012A
:1009800011967D010A1B1B0BC8018E0D9F1D0E9435
:10099000DA22F70181937F01EC15FD05A9F7698142
:1009A0007A818B819C8144DC42CF8B3109F087C0F6
:1009B000DA0113968C91139712961C91B0E88B9FD5
:1009C00010191124FA018181823081F0843079F18B
:1009D000813009F0D0C185816481F0E88F9F601972
:1009E0001124812F90E00E94E222C5C18581668199
:1009F000B0E86B9FB0011124680F711DFA0184816A
:100A0000813019F47195619571097E836D83012F91
:100A100010E01A830983CE010196C9DB6E810F5F56
:100A20001F4F1A830983CE010196C1DBA4C18581C2
:100A30006681B0E86B9FB0011124680F711D882793
:100A400077FD8095982F0E94CE206B017C01F101EB
:100A5000678170E080E090E00E94CC2020E030E0F0
:100A600048EC52E40E9433209B01AC01C701B6015F
:100A70000E94891FD10114962C91AB01BC01213039
:100A800009F4705849835A836B837C836E01B5E007
:100A9000CB0ED11CFE0131967F01012F10E00E1B01
:100AA0001F0BC8018E0D9F1DD7016D917D019E8387
:100AB0008D83C6017CDBEC14FD0499F75CC18C319D
:100AC00071F461E0FA018281811101C060E0D1011D
:100AD00011964C918FEF91E00E94700E4CC18D31B8
:100AE00071F4FA018181813029F48FEF91E00E9445
:100AF0006F1C41C18FEF91E00E947F1C3CC180328E
:100B000079F4DA0111968C91813029F48FEF91E01C
:100B10000E944D1C30C18FEF91E00E945D1C2BC1E3
:100B20008E3109F065C0FA0182816381F0E86F9F20
:100B3000B0011124680F711D882777FD8095982FCB
:100B40000E94CE206B017C01D10114966C9170E063
:100B500080E090E00E94CC2020E030E048EC52E4BD
:100B60000E9433209B01AC01C701B6010E94891F7E
:100B70006B017C01F1018181813021F4F7FAF0945D
:100B8000F7F8F094D10116968C91169717966C9100
:100B9000B0E86B9FB0011124680F711D882777FDA5
:100BA0008095982F0E94CE204B015C01F101608559
:100BB00070E080E090E00E94CC2020E030E048EC43
:100BC00052E40E9433209B01AC01C501B4010E9494
:100BD000891F8B019C01D10115968C91813009F4FC
:100BE0003058B701A6018FEF91E00E940C0FC3C0EF
:100BF0008F3109F05FC011E0FA018781811101C0D6
:100C000010E0D10114968C91149715966C91B0E870
:100C10006B9FB0011124680F711D882777FD8095A7
:100C2000982F0E94CE206B017C01F101668170E05B
:100C300080E090E00E94CC2020E030E048EC52E4DC
:100C40000E9433209B01AC01C701B6010E94891F9D
:100C50004B015C01D10111968C91119712966C9108
:100C6000B0E86B9FB0011124680F711D882777FDD4
:100C70008095982F0E94CE206B017C01F101638149
:100C800070E080E090E00E94CC2020E030E048EC72
:100C900052E40E9433209B01AC01C701B6010E94BF
:100CA000891FAB01BC01E12E950184018FEF91E01A
:100CB000B8D661C0823289F4FFEF2F1A3F0A05E6E9
:100CC00010E0D1016D911D01C8010E94E2220F5F69
:100CD0001F4F03371105A9F74EC0813229F560EF88
:100CE00070E089E591E05CDA6AEA70E089E591E01C
:100CF00057DA84E690E00E94DA22803809F097CD36
:100D000061E270E089E591E04BDA05E610E0C801A8
:100D10000E94DA22682F89E591E005D10F5F1F4F0D
:100D200003371105A1F783CD8332E1F460EF70E062
:100D300089E591E035DA6AEA70E089E591E030DA38
:100D400063E270E089E591E02BDA61E070E089E52B
:100D500091E026DA67E070E089E591E021DA61E070
:100D600070E062CD843249F4FA01238142816181CD
:100D70008FEF91E0D2D481E001C080E063960FB69E
:100D8000F894DEBF0FBECDBFDF91CF911F910F91C1
:100D9000FF90EF90DF90CF90BF90AF909F908F909B
:100DA0007F906F905F904F903F902F90089560914B
:100DB0001601615049E151E08091180140CB9091BA
:100DC00058019923A1F0873F19F410925801EFCFF1
:100DD0002091160130911701F901E85EFE4F8083E2
:100DE0002F5F3F4F30931701209316010895803FE6
:100DF00008F4807F90E0803F910539F481E0809392
:100E000058011092170110921601089589E591E09A
:100E100027D08F3F2FEF920709F0D1CF089589E5B2
:100E200091E005D0892B11F0F1DFF9CF0895FC0195
:100E3000818D228D90E0805C9F4F821B91098F7382
:100E400099270895FC01918D828D981731F0828D3C
:100E5000E80FF11D858D90E008958FEF9FEF0895C5
:100E6000FC01918D828D981761F0828DDF01A80FB2
:100E7000B11D5D968C91928D9F5F9F73928F90E0D4
:100E800008958FEF9FEF089580EB98E0892B41F054
:100E900080E090E0892B21F063D181110C94000057
:100EA0000895FC01848DDF01A80FB11DA35ABF4F27
:100EB0002C91848D90E001968F739927848FA68959
:100EC000B7892C93A089B1898C9180648C93938D80
:100ED000848D981306C00288F389E02D80818F7D70
:100EE00080830895CF93DF93EC01888D8823C1F030
:100EF000EA89FB89808185FD05C0A889B9898C9123
:100F000086FD0EC00FB607FCF5CF808185FFF2CFBE
:100F1000A889B9898C9185FFEDCFCE01C2DFE8CFDA
:100F2000DF91CF910895CF92DF92FF920F931F939D
:100F3000CF93DF931F92CDB7DEB76C0181E0D6016E
:100F400058968C9358975B969C915B975C968C9186
:100F50005C97981307C05096ED91FC915197808152
:100F600085FD2DC0F601038D10E00F5F1F4F0F733D
:100F70001127F02EF601848DF81210C00FB607FC71
:100F8000F9CFD6015096ED91FC915197808185FF64
:100F9000F1CFC601698385DF6981ECCF838DE80FCE
:100FA000F11DE35AFF4F6083D6015B960C935B976C
:100FB0005296ED91FC915397808180620CC0D601CE
:100FC0005696ED91FC91579760835096ED91FC9168
:100FD000519780818064808381E090E00F90DF9161
:100FE000CF911F910F91FF90DF90CF900895BF9206
:100FF000CF92DF92EF92FF92CF93DF93EC016A01E1
:101000007B01B22EE889F98982E08083411581EE67
:10101000580761057105A1F060E079E08DE390E08B
:10102000A70196010E941D1F215031094109510954
:101030005695479537952795211580E1380798F003
:10104000E889F989108260E874E88EE190E0A701F0
:1010500096010E941D1F21503109410951095695E1
:10106000479537952795EC85FD853083EE85FF857F
:101070002083188EEC89FD89B082EA89FB89808102
:1010800080618083EA89FB89808188608083EA8926
:10109000FB89808180688083EA89FB8980818F7DDC
:1010A0008083DF91CF91FF90EF90DF90CF90BF9042
:1010B00008951F920F920FB60F9211242F938F93C2
:1010C0009F93EF93FF93E0916901F0916A01808112
:1010D000E0916F01F091700182FD12C090818091CA
:1010E00072018F5F8F7320917301821751F0E0912D
:1010F0007201F0E0E75AFE4F958F8093720101C0B4
:101100008081FF91EF919F918F912F910F900FBE52
:101110000F901F9018951F920F920FB60F921124E7
:101120002F933F934F935F936F937F938F939F93EF
:10113000AF93BF93EF93FF9389E591E0B2DEFF9108
:10114000EF91BF91AF919F918F917F916F915F913F
:101150004F913F912F910F900FBE0F901F901895B8
:1011600089E591E064DE21E0892B09F420E0822FFB
:10117000089510925C0110925B0188EE93E0A0E06C
:10118000B0E080935D0190935E01A0935F01B09306
:10119000600189E091E090935A018093590185ECB8
:1011A00090E0909366018093650184EC90E09093C9
:1011B00068018093670180EC90E090936A018093CE
:1011C000690181EC90E090936C0180936B0182EC5B
:1011D00090E090936E0180936D0186EC90E0909387
:1011E000700180936F01109272011092730110923E
:1011F0007401109275010895CF92DF92EF92FF92E1
:101200000F931F93CF93DF937C016A01EB0100E002
:1012100010E00C151D0571F06991D701ED91FC915D
:101220000190F081E02DC7010995892B19F00F5F1E
:101230001F4FEFCFC801DF91CF911F910F91FF900A
:10124000EF90DF90CF9008950895AED0FDDF0E941B
:10125000F700C4E4D7E0E3DD2097E9F315DEFBCF28
:101260001F920F920FB60F9211242F933F938F93DB
:101270009F93AF93BF938091F7019091F801A09154
:10128000F901B091FA013091F60123E0230F2D37D7
:1012900020F40196A11DB11D05C026E8230F02967A
:1012A000A11DB11D2093F6018093F7019093F801E1
:1012B000A093F901B093FA018091FB019091FC0198
:1012C000A091FD01B091FE010196A11DB11D809379
:1012D000FB019093FC01A093FD01B093FE01BF912F
:1012E000AF919F918F913F912F910F900FBE0F90D3
:1012F0001F9018953FB7F8948091FB019091FC01E5
:10130000A091FD01B091FE0126B5A89B05C02F3F1D
:1013100019F00196A11DB11D3FBF6627782F892FB7
:101320009A2F620F711D811D911D42E0660F771F7C
:10133000881F991F4A95D1F708958F929F92AF9277
:10134000BF92CF92DF92EF92FF926B017C01D2DFCE
:101350004B015C01C114D104E104F104E1F098D126
:10136000C9DF681979098A099B09683E73408105BC
:10137000910580F321E0C21AD108E108F10888EE56
:10138000880E83E0981EA11CB11CC114D104E10495
:10139000F10431F7DFCFFF90EF90DF90CF90BF9057
:1013A000AF909F908F900895789484B5826084BDAB
:1013B00084B5816084BD85B5826085BD85B5816059
:1013C00085BDEEE6F0E0808181608083E1E8F0E0B9
:1013D0001082808182608083808181608083E0E8E8
:1013E000F0E0808181608083E1EBF0E080818460C7
:1013F0008083E0EBF0E0808181608083EAE7F0E0C9
:10140000808184608083808182608083808181602C
:1014100080838081806880831092C10008958E301F
:1014200008F08E5087702091040190E4299F90016C
:101430001124822B80937C0080917A0080648093B9
:101440007A0080917A0086FDFCCF8091780020910F
:10145000790090E0922B08951F93CF93DF93182F7C
:10146000EB0161E07FD0209711F460E004C0CF3F32
:10147000D10531F461E0812FDF91CF911F91ABC095
:10148000E12FF0E0E051FF4FE491E330F9F048F450
:10149000E130B9F0E230A1F584B5806284BDC8BD09
:1014A00034C0E730E9F0E83019F1E43049F58091D3
:1014B0008000806280938000D0938B00C0938A006C
:1014C00024C084B5806884BDC7BD1FC080918000E2
:1014D000806880938000D0938900C093880015C0F5
:1014E0008091B00080688093B000C093B3000DC0BD
:1014F0008091B00080628093B000C093B40005C0BA
:10150000C038D1050CF0B6CFB0CFDF91CF911F918D
:101510000895833081F028F4813099F08230A1F071
:1015200008958730A9F08830B9F08430D1F48091E3
:1015300080008F7D03C0809180008F778093800032
:10154000089584B58F7702C084B58F7D84BD0895DA
:101550008091B0008F7703C08091B0008F7D809321
:10156000B0000895CF93DF9390E0FC01EC5FFE4F55
:101570002491FC01E85EFE4F8491882349F190E0BC
:10158000880F991FFC01E05CFE4FA591B4918A5C25
:101590009E4FFC01C591D4919FB7611108C0F8948A
:1015A0008C91209582238C93888182230AC062309B
:1015B00051F4F8948C91322F309583238C93888149
:1015C000822B888304C0F8948C91822B8C939FBFCC
:1015D000DF91CF9108950F931F93CF93DF931F92C5
:1015E000CDB7DEB7282F30E0F901E051FF4F8491ED
:1015F000F901EC5FFE4F1491F901E85EFE4F049192
:101600000023C1F0882319F0698383DF6981E02F0B
:10161000F0E0EE0FFF1FEA5CFE4FA591B4919FB77B
:10162000F8948C91611103C01095812301C0812B26
:101630008C939FBF0F90DF91CF911F910F910895D1
:10164000CF93DF93282F30E0F901E051FF4F8491D1
:10165000F901EC5FFE4FD491F901E85EFE4FC491B1
:10166000CC2389F0811155DFEC2FF0E0EE0FFF1F46
:10167000E45DFE4FA591B4912C912D2381E090E083
:1016800021F480E002C080E090E0DF91CF910895E6
:101690000895CF92DF92EF92FF920F931F93CF9313
:1016A000DF9300D0CDB7DEB76C018B017C0184E005
:1016B000E80EF11CC60169837A830E94DA22F801E0
:1016C00081938F01FFEFCF1ADF0A69817A81CE14EF
:1016D000DF0481F7CB010F900F90DF91CF911F9125
:1016E0000F91FF90EF90DF90CF900895CF93DF930D
:1016F000EC010E94591DCE0103960E94591DCE0196
:1017000006960E94591DCE0109960E94591DCE01D0
:101710000C96DF91CF910C94591D8F929F92AF92AE
:10172000BF92CF92DF92EF92FF920F931F93CF93CE
:10173000DF9300E010E0C62FD0E0C22ED12CE12CC8
:10174000F12C842E912CA12CB12C0C171D077CF4AC
:10175000C701B601F2DD61E083E03DDFC501B40100
:10176000ECDD60E083E037DF0F5F1F4FEECFDF91EE
:10177000CF911F910F91FF90EF90DF90CF90BF908E
:10178000AF909F908F900895CF93DF9300D000D0BB
:10179000CDB7DEB719821A821B821C8224E0629FB9
:1017A000C0011124BE016F5F7F4F4E9672DF6981C9
:1017B0007A818B819C810F900F900F900F90DF9119
:1017C000CF910895CF92DF92EF92FF920F931F93E4
:1017D000CF93DF93EC01162F69017A01002349F0C2
:1017E000D3DF9B01AC01C701B6010E94891F6B01C9
:1017F0007C0120E030E0A901C701B6010E942C2045
:1018000087FD11C020E030E044E353E4C701B60196
:101810000E940822181654F4C12CD12C84E3E82E1F
:1018200083E4F82E03C0C12CD12C76011130D1F005
:1018300078F0123011F1133051F5B701A601CE0145
:1018400009960E94381ECD8EDE8EEF8EF8A21FC044
:10185000B701A601CE010E94381EC98ADA8AEB8A36
:10186000FC8A15C0B701A601CE0103960E94381E5E
:10187000CD8ADE8AEF8AF88E0AC0B701A601CE01B2
:1018800006960E94381EC98EDA8EEB8EFC8EDF9192
:10189000CF911F910F91FF90EF90DF90CF9008951F
:1018A0004F925F926F927F928F929F92AF92BF9270
:1018B000CF92DF92EF92FF920F931F93CF93DF931C
:1018C000EC012A013B014801590120E030E040E2EF
:1018D00051E4C501B4010E942C2087FD11C020E015
:1018E00030E040EF52E4C501B4010E94082218160E
:1018F0006CF4812C912C30EFA32E32E4B32E06C071
:10190000812C912C40E2A42E41E4B42E20E030E062
:1019100040E251E4C701B6010E942C2087FD11C0AE
:1019200020E030E04CED52E4C701B6010E940822ED
:1019300018166CF4C12CD12C9CEDE92E92E4F92EF2
:1019400006C0C12CD12C20E2E22E21E4F22EA70108
:101950009601C501B4010E94891F20E030E040E2F9
:1019600053E40E94082218161CF48FEF9FEF1CC04E
:1019700001E0A301920160E0CE0124DFA501940102
:1019800061E0CE011FDFA701960162E0CE011ADF00
:10199000498A5A8A6B8A7C8A8D8A9E8AAF8AB88ED7
:1019A000C98EDA8EEB8EFC8EDF91CF911F910F9155
:1019B000FF90EF90DF90CF90BF90AF909F908F906F
:1019C0007F906F905F904F9008956F927F928F926B
:1019D0009F92AF92BF92CF92DF92EF92FF920F93BE
:1019E0001F93CF93DF93CDB7DEB73C0159DF01E002
:1019F000A501940163E0C301E5DEF301858E968EB7
:101A0000A78EB0A2DF91CF911F910F91FF90EF9021
:101A1000DF90CF90BF90AF909F908F907F906F900E
:101A200008954F925F926F927F928F929F92AF92A2
:101A3000BF92EF920F931F93CF93DF93EC014A0174
:101A40005B012801390120E030E0A901C501B401A2
:101A50000E942C2087FD11C020E030E046E153E4D5
:101A6000C501B4010E940822181654F4812C912C4F
:101A700066E1A62E63E4B62E03C0812C912C54019E
:101A800020E030E0A901C301B2010E942C2087FDB3
:101A900011C020E030E040EF52E4C301B2010E94E7
:101AA0000822181654F4412C512C50EF652E52E4A4
:101AB000752E03C0412C512C3201EE20B1F061E0B3
:101AC000CE0162DE9B01AC01C501B4010E94891FF9
:101AD0004B015C0162E0CE0157DE9B01AC01C3010A
:101AE000B2010E94891F2B013C01A3019201C50193
:101AF000B4010E94891F20E030E044E353E40E94D7
:101B00000822181694F420E04AE061E0CE01DF914B
:101B1000CF911F910F91EF90BF90AF909F908F90BA
:101B20007F906F905F904F90F8CDB501A401CE01EA
:101B300003960E94381EB301A201CE010696DF91E2
:101B4000CF911F910F91EF90BF90AF909F908F908A
:101B50007F906F905F904F900C94381E0F931F935F
:101B6000CF93DF93890184E0689FE0011124BA01DB
:101B7000CE018A5B9F4F8DDDB801CE01C296DF9109
:101B8000CF911F910F9185CDAF92BF92CF92DF92EF
:101B9000EF92FF920F931F93CF93DF93CDB7DEB7F2
:101BA00028970FB6F894DEBF0FBECDBF8C016B0136
:101BB000F42EE22E1D821E821F82188619821A823E
:101BC0001B821C829E012F5F3F4FAE014B5F5F4F18
:101BD0006F2DC4DFB601882777FD8095982F0E946E
:101BE000CE2029813A814B815C810E9413222D8174
:101BF0003E814F8158850E94891F5B016C01EE2058
:101C000059F06F2DC801C0DD9B01AC01B501C601C3
:101C10000E94891F5B016C01B501C60128960FB6B1
:101C2000F894DEBF0FBECDBFDF91CF911F910F9112
:101C3000FF90EF90DF90CF90BF90AF900895BF924C
:101C4000CF92DF92EF92FF920F931F93CF93DF9388
:101C5000EC01162F042F75E0B72EC12CD12C760184
:101C6000113079F048F0123089F01330F1F483E04C
:101C7000D6DB202F43E00EC082E0D1DB202F40E0F6
:101C800009C080E0CCDB202F41E004C081E0C7DB4D
:101C9000202F42E0BC01CE0177DF9B01AC01C701E0
:101CA000B6010E94891F6B017C016AE070E080E050
:101CB00090E043DBBA94A1F620E030E040EA50E443
:101CC000C701B6010E943320DF91CF911F910F9180
:101CD000FF90EF90DF90CF90BF90089540E0AFCF9E
:101CE000CF92DF92EF92FF92CF93DF93EC014111FD
:101CF0001AC06623A9F060E0F1DF6B017C016BE0A4
:101D000070E08FEF91E00E94F21DB701A6018FEF06
:101D100091E00E94381EC98ADA8AEB8AFC8A5EC08A
:101D20008FEF91E059C04130E1F46623B9F061E0F2
:101D30008FEF91E0D3DF6B017C016DE070E082E01A
:101D400092E00E94F21DB701A60182E092E00E949B
:101D5000381ECD8ADE8AEF8AF88E40C082E092E09B
:101D60003BC04230E1F46623B9F062E08FEF91E0CE
:101D7000B5DF6B017C016CE070E085E092E00E94D1
:101D8000F21DB701A60185E092E00E94381EC98EBF
:101D9000DA8EEB8EFC8E22C085E092E01DC04330CF
:101DA000F9F46623B9F063E08FEF91E097DF6B0100
:101DB0007C016AE070E088E092E00E94F21DB701C9
:101DC000A60188E092E00E94381ECD8EDE8EEF8E56
:101DD000F8A204C088E092E00E94F71D81E001C0F3
:101DE00080E0DF91CF91FF90EF90DF90CF9008954A
:101DF000CF93DF93EC0140E061E072DF41E061E00E
:101E0000CE016EDF42E061E0CE016ADF43E061E0D7
:101E1000CE01DF91CF9164CF2F923F924F925F928C
:101E20006F927F928F929F92AF92BF92CF92DF92EA
:101E3000EF92FF920F931F93CF93DF93CDB7DEB74F
:101E400066970FB6F894DEBF0FBECDBF9E8B8D8B0D
:101E50006A017B01280139018DE090E00E94DA22BD
:101E6000803839F028EC48EC63E08D899E8955DC98
:101E7000B0C11D821E821F82188619821A821B829F
:101E80001C82BE016B5F7F4F84E190E002DCBE01EB
:101E90006F5F7F4F88E190E0FCDB20E030E0A9013C
:101EA000C701B6010E942C2087FD17C020E030E05A
:101EB00043E453E4C701B6010E940822181694F0C7
:101EC00020E030E048E852E4C701B6010E94891FD3
:101ED00069877A878B879C870DC080E090E0A8E8AF
:101EE000B2E404C080E090E8A3E8B3E489879A876D
:101EF000AB87BC8720E030E046E153ECC301B20180
:101F00000E942C2087FD11C020E030E040E253E425
:101F1000C301B2010E94082218166CF4412C512C06
:101F2000F0E26F2EF3E47F2E06C0412C512CE6E147
:101F30006E2EE3EC7E2E29853A854B855C85CA01A1
:101F4000B9010E9413226B017C01A3019201C3011C
:101F5000B2010E9413229B01AC01C701B6010E948D
:101F6000891F6B017C0120E030E047E655E40E94C8
:101F7000891F4B015C0120E030E048EC57E4C701C9
:101F8000B6010E9413226D877E878F87988BA501EB
:101F90009401C501B4010E9413229B01AC016D851F
:101FA0007E858F8598890E94881F0E948022698B78
:101FB0007A8B8B8B9C8BA7019601C701B6010E947F
:101FC000891F6D877E878F87988BA501940169850E
:101FD0007A858B859C850E9413224B015C0129899F
:101FE0003A894B895C89C301B2010E9413229B018B
:101FF000AC01C501B4010E94891F4B015C0120E0C6
:1020000030E040E253E46D857E858F8598890E949B
:1020100013229B01AC01C501B4010E9433200E9430
:102020007A1F698B7A8B8B8B9C8B20E030E047E6A4
:1020300055E4C701B6010E94881F4B015C0120E0F6
:1020400030E24BEA57E4C701B6010E9413226B014C
:102050007C01A5019401C501B4010E9413229B01DA
:10206000AC01C701B6010E94881F0E9480226B014B
:102070007C01A501940169857A858B859C850E94E8
:1020800013224B015C01A7019601C301B2010E941A
:1020900013229B01AC01C501B4010E94881F6B0192
:1020A0007C0120E030E044E153E46D857E858F853E
:1020B00098890E9413229B01AC01C701B6010E94BE
:1020C00033200E947A1F4B015C0121EE3EE245E67F
:1020D00052E469897A898B899C890E94132229811B
:1020E0003A814B815C810E94891F20E030E040E80A
:1020F00050E40E94881F0E949B2069877A878B8703
:102100009C87CD80DE80EF80F88421EE3EE245E6BC
:1021100052E4C501B4010E941322A70196010E9456
:10212000891F20E030E040E851E40E94891F0E94AE
:102130009B201B01882777FD8095982F0E94CE2039
:102140004B015C0120E030E040EA50E4C701B601F9
:102150000E94891F2B013C019B01AC01C501B40108
:102160000E942C2087FF03C0C301B20114C020E0ED
:1021700030E041E153E4C701B6010E94891F6B01C1
:102180007C019B01AC01C501B4010E940822181614
:102190002CF4C701B6010E949B201B01A985BA85BA
:1021A000BD01882777FD8095982F0E94CE204B0196
:1021B0005C01B101882777FD8095982F0E94CE2081
:1021C000AB01BC01EE24E394950184018D899E89C5
:1021D00028DC66960FB6F894DEBF0FBECDBFDF9148
:1021E000CF911F910F91FF90EF90DF90CF90BF9014
:1021F000AF909F908F907F906F905F904F903F90A7
:102200002F9008952F923F924F925F926F927F92FC
:102210008F929F92AF92BF92CF92DF92EF92FF92F6
:102220000F931F93CF93DF93CDB7DEB728970FB6E9
:10223000F894DEBF0FBECDBF1C014D835E836F835C
:102240007887C901B80126EE3EE245E652E40E94D5
:1022500033204B015C010E9430202B013C0126EE13
:102260003EE245E652E4C701B6010E9433206B010D
:102270007C010E94302069837A838B839C8323E3D3
:1022800033E34DE651E4C301B2010E9413222EEE66
:102290003CE747E050E40E94891F2B013C0126EFF8
:1022A00038E240E851E469817A818B819C810E9407
:1022B00013229B01AC01C301B2010E94891F6983F3
:1022C0007A838B839C8326EE3EE245E652E46D8161
:1022D0007E818F8198850E9433202B013C010E94D2
:1022E0003020905829813A814B815C810E941322D1
:1022F000F10161A372A383A394A320E030E0A901BC
:10230000C301B2010E940822181624F0C301B201D1
:10231000905802C0C301B2010E94762290582981D0
:102320003A814B815C810E941322F10165A376A35F
:1023300087A390A720E030E0A901C501B4010E9465
:102340000822181624F0C501B401905802C0C50136
:10235000B4010E94762223E333E34DE651E40E9468
:10236000132226E83BEE43E351E40E94891F4B0110
:102370005C0120E030E0A901C701B6010E940822FB
:10238000181624F0C701B601905802C0C701B60163
:102390000E94762226EF38E240E851E40E941322A0
:1023A0009B01AC01C501B4010E94881FF10161A726
:1023B00072A783A794A728960FB6F894DEBF0FBE26
:1023C000CDBFDF91CF911F910F91FF90EF90DF90E4
:1023D000CF90BF90AF909F908F907F906F905F90C5
:1023E0004F903F902F9008954F925F926F927F92FF
:1023F0008F929F92AF92BF92CF92DF92EF92FF9215
:102400000F931F93CF93DF93EC0182E008D820E075
:1024100040E0BC018FEF91E0B7DB4B015C0180E055
:102420000E940F0A20E041E0BC018FEF91E0ACDB9D
:102430002B013C0181E00E940F0A20E042E0BC0138
:102440008FEF91E0A1DB6B017C0193018201B5016B
:10245000A401CE01D7DEDF91CF911F910F91FF90A4
:10246000EF90DF90CF90BF90AF909F908F907F9034
:102470006F905F904F9008952F923F924F925F928E
:102480006F927F928F929F92AF92BF92CF92DF9284
:10249000EF92FF920F931F93CF93DF93CDB7DEB7E9
:1024A00068970FB6F894DEBF0FBECDBF5C012A015E
:1024B0003B01C901B80117011C2DA30192010E9423
:1024C000881F69837A838B839C83D5011F960D9027
:1024D000BC91A02DBA87A98700E0CD01A0E0B0E0B3
:1024E0008D839E83AF83B88789819A81AB81BC81BC
:1024F000B0588F87988BA98BBA8BA02EB12CE98509
:10250000FA85AE16BF0608F07DC1123009F467C027
:1025100080F5112309F40AC1113009F071C1450198
:10252000880C991C880C991C820C931CB501882777
:1025300077FD8095982F0E94CE209B01AC01698188
:102540007A818B819C810E9413226B017C016D81B9
:102550007E818F8198850E94CC209B01AC01C701B0
:10256000B6010E943320A30192010E94891FD40169
:1025700042C1133009F499C0143009F041C1602FF1
:1025800070E080E090E00E94CC206B017C016D81C6
:102590007E818F8198850E94CC209B01AC01C70170
:1025A000B6010E9433206B017C01C501880F991F81
:1025B000880F991F820D931D9C878B87A701960119
:1025C0006F85788989899A890E9413224B015C0161
:1025D00020E030E040E050E4C701B60198C0B5010A
:1025E000882777FD8095982F0E94CE206B017C0173
:1025F0006D817E818F8198850E94CC2020E030E023
:1026000040E05FE30E9413229B01AC01C701B601C9
:102610000E9433206B017C0120E030E040E85FE362
:102620000E942C20AA0CBB1CAA0CBB1C87FF0FC04D
:10263000A20CB31C20E030E040E05FE369817A81C6
:102640008B819C810E941322A701960150C020E03B
:1026500030E040E85FE3C701B6010E94881F6B01CC
:102660007C01C1018A0D9B1D9C878B8720E030E097
:1026700040E05FE36F85788989899A890E941322F7
:102680004B015C0120E030E040E050E4C701B601BE
:102690000E94881F9B01AC01C701B6010E94132252
:1026A00020E030E040E85FE332C0602F70E080E07F
:1026B00090E00E94CC206B017C016D817E818F8136
:1026C00098850E94CC209B01AC01C701B6010E94F5
:1026D00033206B017C01AA0CBB1CAA0CBB1CA20CF6
:1026E000B31CA701960169817A818B819C810E942C
:1026F0001322A70196010E941322A30192010E94B6
:10270000891FF501608371838283938379C00E945E
:10271000881F9B01AC01C501B4010E941322A301D3
:1027200092010E94891FAB85BC8565C0602F70E057
:1027300080E090E00E94CC206B017C016D817E8165
:102740008F8198850E94CC209B01AC01C701B60106
:102750000E9433206B017C019B01AC010E9413227B
:102760006B877C878D879E87F501EE0FFF1FEE0F2D
:10277000FF1FE20DF31DF88FEF8B20E030E040E407
:1027800050E469817A818B819C810E9413222B8580
:102790003C854D855E850E9413229B01AC01C301DF
:1027A000B2010E94891F4B015C0120E030E040E053
:1027B00050EC69817A818B819C810E9413226B8B02
:1027C0007C8B8D8B9E8BA70196016B857C858D857F
:1027D0009E850E9413229B01AC016B897C898D89A7
:1027E0009E890E9413229B01AC01C501B4010E9485
:1027F000891FAF89B88D6D937D938D939C931397AB
:102800000F5F7BCE68960FB6F894DEBF0FBECDBFCC
:10281000DF91CF911F910F91FF90EF90DF90CF90BC
:10282000BF90AF909F908F907F906F905F904F90F0
:102830003F902F9008954F925F926F927F928F9268
:102840009F92AF92BF92CF92DF92EF92FF920F933F
:102850001F93CF93DF9300D000D0CDB7DEB72A010E
:102860003B01C901B80126EE3EE245E652E40E9472
:1028700033200E94302069837A838B839C8326EEE9
:102880003EE245E652E4C701B6010E9433200E94B1
:1028900030204B015C0123E333E34DE651E46981D1
:1028A0007A818B819C810E9413222EEE3CE747E0C7
:1028B00050E40E94891F6B017C0126EF38E240E85A
:1028C00051E4C501B4010E9413229B01AC01C70170
:1028D000B6010E94891F4B015C0126EE3EE245E6EF
:1028E00052E4C301B2010E9433206B017C0120E05D
:1028F00030E0A9010E940822181624F0C701B60191
:10290000905802C0C701B6010E9476229058A501D6
:1029100094010E9413220F900F900F900F90DF915F
:10292000CF911F910F91FF90EF90DF90CF90BF90CC
:10293000AF909F908F907F906F905F904F90089591
:102940002F923F924F925F926F927F928F929F92BF
:10295000AF92BF92CF92DF92EF92FF920F931F93AD
:10296000CF93DF93CDB7DEB768970FB6F894DEBF8D
:102970000FBECDBF988F8F8B49835A836B837C8327
:102980000F83188729873A8715019E828D822CE54F
:102990003FE844EC51E4C701B6010E940822181632
:1029A0009CF028E939E941E550ECC701B6010E94E5
:1029B0002C2087FF11C058E9C52E59E9D52E51E5C5
:1029C000E52E50ECF52E08C06CE5C62E6FE8D62E2D
:1029D00064ECE62E61E4F62E2EEE3CE747E050E490
:1029E0006F81788589859A8590580E94881F23E396
:1029F00033E34DE651E40E9433204B015C0126E8AD
:102A00003BEE43E351E4C701B6010E94881F23E374
:102A100033E34DE651E40E9433202B013C01A50134
:102A20009401C501B4010E9413226F87788B898BB2
:102A30009A8BA3019201C301B2010E9413226B87FA
:102A40007C878D879E872F85388949895A890E947E
:102A5000891F0E9480226B8B7C8B8D8B9E8B2AE042
:102A600037ED43EA5BE369817A818B819C810E9427
:102A70002C2018160CF4B0C02AE037ED43EA5BEBCB
:102A800069817A818B819C810E94082287FDA4C084
:102A900080E090E0A4EBB2E4F10180839183A28313
:102AA000B38320E030E0A901C301B2010E942C20D1
:102AB0008823C9F0C501B4019058A30192010E9476
:102AC00033200E94042026EE3EE245E652E40E94B6
:102AD00013224B015C0120E030E0A9010E94082292
:102AE00018168CF406C0812C912C44EBA42E42E4E1
:102AF000B42E20E030E044E353E4C501B4010E9469
:102B0000881F4B015C012F85388949895A8960E00B
:102B100070E080E89FE30E94881F2B853C854D85EF
:102B20005E850E94881F24E937E745E95FE30E943C
:102B3000881F26E531E54AE050E40E9433202B89C6
:102B40003C894D895E890E9433200E94ED1F26EE4C
:102B50003EE245E652E40E941322A50194010E9440
:102B6000881F4B015C0120E030E0A9010E942C206D
:102B7000EDA5FEA587FD05C080829182A282B38269
:102B800004C0108211821282138226EE3EE245E6D4
:102B900052E4EDA5FEA560817181828193810E943E
:102BA00033200E94762226EF38E240E851E40E946A
:102BB00013229B01AC01C701B6010E94891F26E8C0
:102BC0003BEE43E351E40E94881F23E333E34DE6E9
:102BD00051E40E9433202AC129813A814B815C81D2
:102BE0006F81788589859A850E9433204B015C012D
:102BF0000E94042026EE3EE245E652E40E941322A3
:102C00006B017C0120E030E0A901C501B4010E9404
:102C10002C2087FD06C0F101C082D182E282F382BE
:102C20000DC020E030E044E353E4C701B6010E9448
:102C3000891FF101608371838283938320E030E0F8
:102C4000A9016F81788589859A850E942C20811140
:102C50001AC020E030E0A90169817A818B819C81D2
:102C60000E940822181654F480E090E0A4E3B3E434
:102C7000F10180839183A283B38305C0F1011082A7
:102C800011821282138226EE3EE245E652E4F10101
:102C900060817181828193810E9433200E94302063
:102CA0009B01AC0169817A818B819C8190580E9443
:102CB00033202EEE3CE747E050E40E94881F23E3D8
:102CC00033E34DE651E40E9433204B015C0120E0E8
:102CD00030E0A901C301B2010E942C208823C9F071
:102CE000A3019201C501B40190580E9433200E94B3
:102CF000042026EE3EE245E652E40E9413226B01D8
:102D00007C0120E030E0A9010E94082218168CF412
:102D100006C0C12CD12C34EBE32E32E4F32E20E09C
:102D200030E044E353E4C701B6010E94881F6B0101
:102D30007C01A5019401C501B4010E9413229B01ED
:102D4000AC016B857C858D859E850E94891F4B011A
:102D50005C010E94802269837A838B839C8324E9AF
:102D600037E745E95FE3C501B4010E94891F20E010
:102D700030E040E85FE30E94881F905826E531E587
:102D80004AE050E40E94332029813A814B815C81E2
:102D90000E9433200E94ED1F26EE3EE245E652E4FB
:102DA0000E941322A70196010E94881FEDA5FEA58F
:102DB000608371838283938320E030E0A901F10175
:102DC00060817181828193810E942C2087FF05C0E0
:102DD000F101108211821282138226EE3EE245E654
:102DE00052E4EDA5FEA560817181828193810E94EC
:102DF00033206B017C0120E030E0A9010E94082211
:102E0000181624F0C701B601905802C0C701B601D8
:102E10000E94762226E531E54AE85FE30E9413220C
:102E20009B01AC01C301B2010E94891F0E94ED1FEA
:102E300026EE3EE245E652E40E941322ED81FE8139
:102E40006083718382839383F101C080D180E280AB
:102E5000F38020E030E0A901C701B6010E940822FA
:102E6000181624F0F7FAF094F7F8F094F101C08204
:102E7000D182E282F382ED81FE8180809180A28006
:102E8000B38020E030E0A901C501B4010E9408220E
:102E9000181624F0B7FAB094B7F8B094ED81FE811B
:102EA00080829182A282B382EDA5FEA5C080D180EE
:102EB000E280F38020E030E0A901C701B6010E9462
:102EC0002C2087FD30C0F1014081518162817381E6
:102ED000950184018F89988DAEDC6B017C012DEC0E
:102EE0003CEC4CEC5DE36F81788589859A850E9486
:102EF000891F9B01AC01C701B6010E940822181668
:102F00000CF48AC02DEC3CEC4CEC5DE36F817885D1
:102F100089859A85FDD79B01AC01C701B6010E9446
:102F20002C2087FD79C0F101C080D180E280F38040
:102F3000A7019601C701B6010E94C12281117AC082
:102F4000E894F7F82FEF3FEF4FE75FE7C701B601CF
:102F50000E94C12281110BC02FEF3FEF4FE75FE7C7
:102F6000C701B6010E942C2018160CF463C0ED8135
:102F7000FE81C080D180E280F380A7019601C70165
:102F8000B6010E94C122811160C0E894F7F82FEFCA
:102F90003FEF4FE75FE7C701B6010E94C1228111F1
:102FA0000BC02FEF3FEF4FE75FE7C701B6010E946D
:102FB0002C2018160CF449C0EDA5FEA5C080D180C8
:102FC000E280F380A7019601C701B6010E94C122E9
:102FD000811147C046015701E894B7F82FEF3FEF42
:102FE0004FE75FE7C501B4010E94C12281110AC009
:102FF0002FEF3FEF4FE75FE7C501B4010E942C20A0
:1030000018167CF120E030E0A901C701B6010E944A
:103010002C2087FF31C025C0A501940160E070E03D
:1030200084E393E475D7ED81FE81608371838283AD
:10303000938379CF60E08FEF91E00E946E0EF101F3
:10304000608371838283938392CF61E08FEF91E0FD
:103050000E946E0EED81FE81608371838283938373
:10306000ABCF62E08FEF91E00E946E0EEDA5FEA562
:10307000608371838283938368960FB6F894DEBF72
:103080000FBECDBFDF91CF911F910F91FF90EF90B9
:10309000DF90CF90BF90AF909F908F907F906F9078
:1030A0005F904F903F902F9008952F923F924F92B4
:1030B0005F926F927F928F929F92AF92BF92CF92C8
:1030C000DF92EF92FF920F931F93CF93DF93CDB7D1
:1030D000DEB7C454D1090FB6F894DEBF0FBECDBF22
:1030E0001C012A013B010C8F1D8F2E8F3F8FCAA61A
:1030F000DBA6ECA6FDA68AA29BA2ACA2BDA22DB720
:103100003EB725963FAF2EAF25979A01AB01C3017D
:10311000B2010E9413226B017C012C8D3D8D4E8DDE
:103120005F8DCA01B9010E9413229B01AC01C70146
:10313000B601EFD60E9480226B017C0120E030E0D6
:1031400040E052E40E9408221816ECF4A701960110
:1031500060E070E080E092E486D76B017C019B0127
:10316000AC01C301B2010E9413222B013C01A70153
:1031700096016C8D7D8D8E8D9F8D0E9413226C8F9C
:103180007D8F8E8F9F8FD1015996CD90DD90ED90E0
:10319000FC905C9755960D911D912D913C915897FF
:1031A00051964D915D916D917C915497C1012AD8B2
:1031B000D10191968D919D910D90BC91A02D8EABDA
:1031C0009FABA8AFB9AFD10195968D919D910D9010
:1031D000BC91A02D8AAF9BAFACAFBDAFD10199968A
:1031E0008D919D910D90BC91A02D22968CAF9DAF9D
:1031F000AEAFBFAF22976A96BFAD6A97B170BEA35C
:103200001FA2EEA1FFA1BF01882777FD8095982F0F
:10321000C5D76B017C019B01AC016EA97FA988AD6C
:1032200099AD0E941322A301920173D66EA37FA3CE
:1032300088A799A7A70196016AAD7BAD8CAD9DAD1E
:103240000E9413222C8D3D8D4E8D5F8D62D62B01F9
:103250003C01A701960122966CAD7DAD8EAD9FAD70
:1032600022970E9413222AA53BA54CA55DA551D605
:103270006C8F7D8F8E8F9F8FCE010D969F938F9336
:103280009E012F5E3F4F490108965C01CC8CDD8C7E
:10329000EE8CFF8C930182014EA15FA168A579A5F8
:1032A000C1014EDB8D899E89AF89B88D8AA79BA706
:1032B000ACA7BDA7D10151968D919D910D90BC9168
:1032C000A02D8EA79FA7A8ABB9AB9C01AD016AA5A5
:1032D0007BA58CA59DA51CD66B017C010F900F9042
:1032E00020E030E0A9010E94082218161CF4C70152
:1032F000B60103C0C701B601905822D78B01F10176
:10330000258936894789508D69897A898B899C8975
:10331000FFD54B015C0120E030E0A9010E940822AA
:1033200018161CF4C501B40103C0C501B4019058BE
:1033300007D76CAB23967FAF2397D10159962D9178
:103340003D914D915C915C976D857E858F859889C7
:10335000DFD54B015C0120E030E0A9010E9408228A
:1033600018161CF4C501B40103C0C501B40190587E
:10337000E7D68CA923969FAD23978017910708F471
:10338000C8018C018617970708F48B0101351105D8
:1033900010F000E510E0F101108B07876A96FFAD91
:1033A0006A97F1FF0CC0D1015D962D913D914D9131
:1033B0005C9190976AA17BA18CA19DA111C06A9696
:1033C000BFAD6A97B2FF11C0F101258D368D478DD3
:1033D00050A16AA17BA18CA19DA19BD5A7019601BB
:1033E00098D56AA37BA38CA39DA320E030E0A9011C
:1033F0006E966CAD7DAD8EAD9FAD6E970E9408222E
:1034000018160CF00BC26F96FFAD6F97F13009F0F4
:10341000FDC02DB73EB73FA32EA3000F111F000F15
:10342000111F8DB79EB7801B910B0FB6F8949EBFEE
:103430000FBE8DBFADB7BEB711963D01EDB7FEB75C
:10344000E01BF10B0FB6F894FEBF0FBEEDBF2DB71A
:103450003EB72F5F3F4F3D8F2C8F8DB79EB7801BA0
:10346000910B0FB6F8949EBF0FBE8DBFADB7BEB720
:1034700011962D01EDB7FEB7E01BF10B0FB6F894D6
:10348000FEBF0FBEEDBF2DB73EB72F5F3F4F39A335
:1034900028A3A096CFACA09773010AA51BA52CA5C5
:1034A0003DA54EA55FA568A979A9C1010E943C125E
:1034B00009891A892B893C89D10155964D915D91D5
:1034C0006D917C915897A096CFACA097EC8CFD8C19
:1034D000C1010E943C120D851E852F853889F1019E
:1034E000418D528D638D748DA096CFACA0977201E3
:1034F000C1010E943C12D1015D964D915D916D918B
:103500007C919097A096CFACA097E8A0F9A00AA1D3
:103510001BA12CA13DA1C1010E943C121B8E2B8D31
:10352000822F90E0D1011F962D913C9150978217E8
:10353000930708F063C0880F991F880F991FA19601
:10354000BFADA197BB2311F1E8A1F9A1E80FF91FC5
:1035500080809180A280B380F201E80FF91FC080C3
:10356000D180E280F380EC8DFD8DE80FF91F0081A2
:10357000118122813381F301E80FF91F40815181CC
:1035800062817381C1010E94E50C19C0F201E80F4C
:10359000F91FC080D180E280F380EC8DFD8DE80FB3
:1035A000F91F0081118122813381F301E80FF91F96
:1035B0004081518162817381C1010E94500C20E0E1
:1035C00030E04AE754E46E966CAD7DAD8EAD9FADB4
:1035D0006E9729D76B017C01F1016785708980E0C6
:1035E00090E0DAD59B01AC01C701B6013CD5A8D566
:1035F0000E949D09FB8DFF5FFB8F91CFEEA1FFA184
:103600000FB6F894FEBF0FBEEDBF08C16F96FFADB9
:103610006F97F11103C12DB73EB73DAB2CAB000F37
:10362000111F000F111F8DB79EB7801B910B0FB696
:10363000F8949EBF0FBE8DBFADB7BEB71196B9A3AC
:10364000A8A3EDB7FEB7E01BF10B0FB6F894FEBFD1
:103650000FBEEDBF2DB73EB72F5F3F4F3BA72AA749
:103660008DB79EB7801B910B0FB6F8949EBF0FBE0F
:103670008DBFADB7BEB71196BFA7AEA7EDB7FEB76A
:10368000E01BF10B0FB6F894FEBF0FBEEDBF2DB7D8
:103690003EB72F5F3F4F3BAB2AABA096CFACA09776
:1036A000E8A0F9A00EA11FA128A539A54EA95FA9E0
:1036B00068AD79ADC1010E943C12A096CFACA09735
:1036C000EAA4FBA4930182014AAD5BAD6CAD7DAD74
:1036D000C1010E943C12A096CFACA097EEA4FFA41B
:1036E0000C8D1D8D2E8D3F8D22964CAD5DAD6EAD3A
:1036F0007FAD2297C1010E943C12D1015D964D9190
:103700005D916D917C919097A096CFACA097EAA81F
:10371000FBA80AA11BA12CA13DA1C1010E943C1242
:10372000512CFE013196FA8FE98F652C712CF10135
:10373000878590896816790608F069C0660C771C41
:10374000660C771CEEA5FFA5E60DF71DC080D180A5
:10375000E280F380EAA5FBA5E60DF71D008111814B
:1037600022813381E8A1F9A1E60DF71D4081518145
:1037700062817381FA8DFF93898D8F93DE01159697
:103780004D01FE0139965F01C101DAD80F900F900B
:10379000C980DA80EB80FC800D811E812F81388505
:1037A00049855A856B857C85A196FFADA197FF233E
:1037B00061F0EAA9FBA9E60DF71D80809180A28047
:1037C000B380C1010E94E50C03C0C1010E94500CEE
:1037D00020E030E04AE754E46E966CAD7DAD8EADEE
:1037E0009FAD6E9720D66B017C01D1011F966D9124
:1037F0007C91509780E090E0CFD49B01AC01C70151
:10380000B60131D49DD40E949D0953948ECF2CA92A
:103810003DA90FB6F8943EBF0FBE2DBF4D895E89FE
:103820006F89788D09891A892B893C89CD84DE843A
:10383000EF84F888A1968FADA197882341F08AA0E4
:103840009BA0ACA0BDA0C1010E94E50C03C0C101BA
:103850000E94500C2596AEADBFAD25970FB6F894DB
:10386000BEBF0FBEADBFCC5BDF4F0FB6F894DEBF5F
:103870000FBECDBFDF91CF911F910F91FF90EF90C1
:10388000DF90CF90BF90AF909F908F907F906F9080
:103890005F904F903F902F900895CF93DF93EC016E
:1038A00061E089E00E94B20A60E089E00E94EB0AD0
:1038B00081E08DA7DF91CF910895CF93DF93EC0145
:1038C0008DA5882349F061E089E00E94B20A61E099
:1038D00089E00E94EB0A1DA6DF91CF91089561E077
:1038E00086E00E94B20A61E085E00E94B20A60E0D0
:1038F00085E00E94EB0A61E086E00C94EB0A61E04F
:1039000086E00E94B20A61E085E00E94B20A61E0AE
:1039100085E00E94EB0A60E086E00E94EB0A62E329
:1039200070E080E090E00E949D0960E085E00C94EA
:10393000EB0A8FEF91E00C94760B1F920F920FB66B
:103940000F9211242F933F934F935F936F937F9325
:103950008F939F93AF93BF93EF93FF9380912E022A
:1039600087FF05C010928500109284001AC0209134
:103970002E02332727FD309580912D0290E02817E5
:1039800039077CF480912E02992787FD9095FC01E0
:10399000EE0FFF1FE80FF91FE15DFD4F808186FDEF
:1039A00015C080912E028F5F80932E0220912E02EF
:1039B000332727FD309580912D0290E02817390795
:1039C000BCF480912E028C305CF112C080912E02EA
:1039D000992787FD9095FC01EE0FFF1FE80FF91F57
:1039E000E15DFD4F808160E08F730E94EB0AD9CFCB
:1039F0008091840090918500049680349C4918F44D
:103A000080E49CE905C08091840090918500049633
:103A100090938900809388008FEF80932E0238C0A6
:103A2000209184003091850080912E02992787FD96
:103A30009095FC01EE0FFF1FE80FF91FE15DFD4FB0
:103A400081819281820F931F9093890080938800D7
:103A500080912E02992787FD9095FC01EE0FFF1FA4
:103A6000E80FF91FE15DFD4F808186FF11C0809155
:103A70002E02992787FD9095FC01EE0FFF1FE80F9E
:103A8000F91FE15DFD4F808161E08F730E94EB0AB9
:103A9000FF91EF91BF91AF919F918F917F916F9126
:103AA0005F914F913F912F910F900FBE0F901F90FC
:103AB000189520912D022C30A0F431E0320F309374
:103AC0002D02FC012083822F90E0FC01EE0FFF1FEE
:103AD000E80FF91FE15DFD4F88EB9BE09283818346
:103AE00008952FEFFC0120830895DF92EF92FF925B
:103AF0000F931F93CF93DF93EC01D62E7A018901A8
:103B000088818C3008F065C061E08D2D0E94B20A7A
:103B10008881A82FB0E0FD01EE0FFF1FEA0FFB1F09
:103B2000E15DFD4F2D2D2F739081907C922B908322
:103B300064EF71E06E197F0977FF02C06D5F7F4F00
:103B40007595679575956795698344EC59E0401BB9
:103B5000510B57FF02C04D5F5F4F559547955595E7
:103B600047954A836CE05DD19CE0899FB0011124A8
:103B700020E030E0A901460F571FFA01EE0FFF1FAA
:103B8000E40FF51FE15DFD4F908196FD16C02F5F9C
:103B90003F4F2C30310571F781110FC0109280001A
:103BA00082E0809381001092850010928400B19A87
:103BB00080916F00826080936F00888190E0FC01AB
:103BC000EE0FFF1FE80FF91FE15DFD4F808180645C
:103BD00080838881DF91CF911F910F91FF90EF90AB
:103BE000DF90089524EC39E044EF51E07ECFFC01F2
:103BF000808190E0FC01EE0FFF1FE80FF91FE15DEF
:103C0000FD4F80818F7B80830895FC0180818C3003
:103C100070F591812DE730E0291B310997FD33952F
:103C2000220F331F220F331F621773077CF092811C
:103C300021E732E0291B310997FD3395220F331F0D
:103C4000220F331F621773070CF49B0122503109B6
:103C5000220F331F4FB7F89490E0FC01EE0FFF1FC7
:103C6000E80FF91FE15DFD4F328321834FBF0895B7
:103C70004F925F926F927F92AF92BF92CF92DF92FC
:103C8000EF92FF920F931F93CF93DF93EC012A01E2
:103C90003B0120E030E04AEF53E4C301B201DCD144
:103CA00087FF58C020E030E0A901C301B201D4D1A0
:103CB00087FD10C020E030E044E353E4C301B201CB
:103CC000A7D3181654F4412C512C34E3632E33E45B
:103CD000732E03C0412C512C320189812DE730E035
:103CE000281B310987FD3395220F331F220F331F05
:103CF0005901CC24B7FCC094DC2C20E030E040E239
:103D000051E4C301B2018FD316D22A8141E752E0B8
:103D1000421B510927FD5395440F551F440F551F52
:103D20002A01662457FC6094762C7F926F925F92F2
:103D30004F9218E0E12E17E0F12E00E010E020E0B5
:103D400030E0A9011AD02AD22B013C010F900F902C
:103D50000F900F90C301B201EED1CE01DF91CF9150
:103D60001F910F91FF90EF90DF90CF90BF90AF9099
:103D70007F906F905F904F9048CF4F925F926F927D
:103D80007F92AF92BF92CF92DF92EF92FF920F930A
:103D90001F93CF93DF93CDB7DEB729013A01621BA2
:103DA000730B840B950B29893A894B895C892A19F5
:103DB0003B094C095D09298B3A8B4B8B5C8B9B0132
:103DC000AC0169897A898B899C891CD0E418F50833
:103DD00006091709A801970152D02A0D3B1D4C1D59
:103DE0005D1DCA01B901DF91CF911F910F91FF9025
:103DF000EF90DF90CF90BF90AF907F906F905F90EB
:103E00004F900895DB018F939F9355D0BF91AF9151
:103E1000A29F800D911DA39F900DB29F900D112424
:103E20000895991B79E004C0991F961708F0961B16
:103E3000881F7A95C9F780950895A1E21A2EAA1BCA
:103E4000BB1BFD010DC0AA1FBB1FEE1FFF1FA2174A
:103E5000B307E407F50720F0A21BB30BE40BF50B47
:103E6000661F771F881F991F1A9469F760957095D0
:103E7000809590959B01AC01BD01CF010895052E61
:103E800097FB16F400940FD057FD05D0D6DF07FC42
:103E900002D046F408C050954095309521953F4F8B
:103EA0004F4F5F4F089590958095709561957F4F26
:103EB0008F4F9F4F08950FD0A59F900DB49F900DE9
:103EC000A49F800D911D11240895EE0FFF1F0590F2
:103ED000F491E02D0994A29FB001B39FC001A39F6C
:103EE000700D811D1124911DB29F700D811D112433
:103EF000911D08959F939F778CD10F9000203AF4E5
:103F00009058A2EA2AED3FE049E450E413D035C2CC
:103F10005058BB27AA270ED030C2F9D130F0FED1BD
:103F200020F031F49F3F11F41EF4B8C10EF4E09577
:103F3000E7FBAEC1E92F43D280F3BA1762077307DC
:103F40008407950718F071F49EF55BC20EF4E095B6
:103F50000B2EBA2FA02D0B01B90190010C01CA0143
:103F6000A0011124FF27591B99F0593F50F4503EEE
:103F700068F11A16F040A22F232F342F4427585FE0
:103F8000F3CF469537952795A795F0405395C9F7F8
:103F90007EF41F16BA0B620B730B840BBAF09150B0
:103FA000A1F0FF0FBB1F661F771F881FC2F70EC04F
:103FB000BA0F621F731F841F48F487957795679522
:103FC000B795F7959E3F08F0B3CF9395880F08F00B
:103FD0009927EE0F9795879508959F939F77EEE326
:103FE00089379E0720F4E8E6F0E080D109C011D1BE
:103FF0009058A2EA2AED3FE049EC5FE39BDFBDD198
:104000000F9007FC90580895DF93DD27B92FBF77F5
:1040100040E85FE31616170648075B0710F4D92F30
:10402000FBD19F938F937F936F93A8D2ECE7F0E03F
:1040300038D1A3D12F913F914F915F9100D2DD23D1
:1040400049F09058A2EA2AED3FE049EC5FE3D078CE
:104050005D2770DFDF9191C1F7D008F481E008950A
:1040600065D1E3959BC10CD088C158D140F04FD1A8
:1040700030F021F45F3F19F00BC15111C3C10EC1E3
:104080009ED198F39923C9F35523B1F3951B550B92
:10409000BB27AA2762177307840738F09F5F5F4F1B
:1040A000220F331F441FAA1FA9F333D00E2E3AF05C
:1040B000E0E830D091505040E695001CCAF729D076
:1040C000FE2F27D0660F771F881FBB1F26173707C5
:1040D0004807AB07B0E809F0BB0B802DBF01FF27F5
:1040E00093585F4F2AF09E3F510568F0D1C08AC1B6
:1040F0005F3FECF3983EDCF3869577956795B7952F
:10410000F7959F5FC9F7880F911D9695879597F949
:104110000895E1E0660F771F881FBB1F62177307C2
:104120008407BA0720F0621B730B840BBA0BEE1FD7
:1041300088F7E095089504D06894B11163C108959B
:1041400046D188F09F5790F0B92F9927B751A0F02A
:10415000D1F0660F771F881F991F1AF0BA95C9F71B
:1041600012C0B13081F04DD1B1E008954AC1672F3E
:10417000782F8827B85F39F0B93FCCF386957795CB
:104180006795B395D9F73EF49095809570956195B4
:104190007F4F8F4F9F4F0895E89409C097FB3EF4DF
:1041A00090958095709561957F4F8F4F9F4F992384
:1041B000A9F0F92F96E9BB279395F6958795779502
:1041C0006795B795F111F8CFFAF4BB0F11F460FFC2
:1041D0001BC06F5F7F4F8F4F9F4F16C0882311F01A
:1041E00096E911C0772321F09EE8872F762F05C02E
:1041F000662371F096E8862F70E060E02AF09A95C9
:10420000660F771F881FDAF7880F9695879597F9BD
:104210000895DF93CF931F930F938B01EC01E9EA8D
:10422000F0E03FD0AAD09801AE018B01EC0160E034
:1042300070E080E89FE36CDE63D19801AE010F91DE
:104240001F91CF91DF91FBC0990F0008550FAA0B6A
:10425000E0E8FEEF16161706E807F907C0F0121699
:104260001306E407F50798F0621B730B840B950B9C
:1042700039F40A2661F0232B242B252B21F40895F1
:104280000A2609F4A140A6958FEF811D811D08958E
:1042900097F99F6780E870E060E008959FEF80ECF9
:1042A0000895DF93CF931F930F93FF92EF92DF92C6
:1042B0007B018C01689405C0DA2EEF01C0D0FE01AD
:1042C000E894A5912591359145915591AEF3EF0173
:1042D00031DEFE019701A801DA9479F7DF90EF90C3
:1042E000FF900F911F91CF91DF9108959F938F932E
:1042F0007F936F93FF93EF939B01AC0194D0EF9169
:10430000FF91CFDF2F913F914F915F918CC000249F
:104310000A941616170618060906089500240A942A
:1043200012161306140605060895B8CF50D0E8F308
:10433000E894E0E0BB279F57F0F02AED3FE049EC1E
:1043400006C0EE0FBB0F661F771F881F28F0B23A1A
:1043500062077307840728F0B25A620B730B840B51
:10436000E3959A9572F7803830F49A95BB0F661FE3
:10437000771F881FD2F790480AC1092E0394000CBA
:1043800011F4882352F0BB0F40F4BF2B11F460FFEF
:1043900004C06F5F7F4F8F4F9F4F0895EF93E0FFF3
:1043A00006C0A2EA2AED3FE049EC5FEBC3DDE5DFA2
:1043B0000F90039401FC9058E1EDF0E097CF57FD8A
:1043C0009058440F551F59F05F3F71F04795880F83
:1043D00097FB991F61F09F3F79F08795089512161A
:1043E00013061406551FF2CF4695F1DF08C01616C6
:1043F00017061806991FF1CF869571056105089477
:104400000895E894BB2766277727CB0197F908958D
:104410001BDF08F48FEF08959B01AC0160E070E0B2
:1044200080E89FE320CE0BD0A8CF71DF28F076DFA5
:1044300018F0952309F02CCF31CF1124E3CFBFDF43
:10444000A0F3959FD1F3950F50E0551F629FF001A7
:10445000729FBB27F00DB11D639FAA27F00DB11D00
:10446000AA1F649F6627B00DA11D661F829F222789
:10447000B00DA11D621F739FB00DA11D621F839F10
:10448000A00D611D221F749F3327A00D611D231FE6
:10449000849F600D211D822F762F6A2F11249F5734
:1044A00050408AF0E1F088234AF0EE0FFF1FBB1F57
:1044B000661F771F881F91505040A9F79E3F5105F6
:1044C00070F0E6CE9FCF5F3FECF3983EDCF386952D
:1044D00077956795B795F795E7959F5FC1F7FE2BA1
:1044E000880F911D9695879597F908959F931EDFE4
:1044F0000F9007FCEE5F52CF11F40EF4CFCE45C003
:1045000066DFD0F39923D9F3CEF39F57550B87FF7E
:104510004AD00024A0E640EA90018058569597952D
:1045200028F4805C660F771F881F20F02617370756
:10453000480730F4621B730B840B202931294A2B66
:10454000A69517940794202531254A2758F7660F1A
:10455000771F881F20F026173707480730F4620BB3
:10456000730B840B200D311D411DA09581F7B901FE
:10457000842F9158880F9695879508959B01AC01DB
:1045800052CF62DE880B990B08959F3F31F0915016
:1045900020F4879577956795B795880F911D969527
:1045A000879597F9089591505040660F771F881F9F
:1045B000D2F70895F999FECF92BD81BDF89A992757
:1045C00080B50895262FF999FECF1FBA92BD81BDFF
:1045D00020BD0FB6F894FA9AF99A0FBE0196089585
:0445E000F894FFCF7D
:1045E4000100000001000000009307FC08170730D9
:0645F40007220772070018
:00000001FF
